{
  "contractName": "FoodSupplyChain",
  "abi": [
    {
      "anonymous": false,
      "inputs": [
        {
          "indexed": false,
          "internalType": "uint256",
          "name": "productId",
          "type": "uint256"
        },
        {
          "indexed": false,
          "internalType": "string",
          "name": "name",
          "type": "string"
        },
        {
          "indexed": false,
          "internalType": "string",
          "name": "origin",
          "type": "string"
        }
      ],
      "name": "ProductRegistered",
      "type": "event"
    },
    {
      "anonymous": false,
      "inputs": [
        {
          "indexed": false,
          "internalType": "uint256",
          "name": "productId",
          "type": "uint256"
        },
        {
          "indexed": false,
          "internalType": "string",
          "name": "stage",
          "type": "string"
        },
        {
          "indexed": false,
          "internalType": "string",
          "name": "location",
          "type": "string"
        }
      ],
      "name": "StageAdded",
      "type": "event"
    },
    {
      "inputs": [],
      "name": "productCounter",
      "outputs": [
        {
          "internalType": "uint256",
          "name": "",
          "type": "uint256"
        }
      ],
      "stateMutability": "view",
      "type": "function",
      "constant": true
    },
    {
      "inputs": [
        {
          "internalType": "uint256",
          "name": "",
          "type": "uint256"
        },
        {
          "internalType": "uint256",
          "name": "",
          "type": "uint256"
        }
      ],
      "name": "productStages",
      "outputs": [
        {
          "internalType": "string",
          "name": "stage",
          "type": "string"
        },
        {
          "internalType": "string",
          "name": "location",
          "type": "string"
        },
        {
          "internalType": "string",
          "name": "date",
          "type": "string"
        },
        {
          "internalType": "string",
          "name": "info",
          "type": "string"
        }
      ],
      "stateMutability": "view",
      "type": "function",
      "constant": true
    },
    {
      "inputs": [
        {
          "internalType": "uint256",
          "name": "",
          "type": "uint256"
        }
      ],
      "name": "products",
      "outputs": [
        {
          "internalType": "uint256",
          "name": "id",
          "type": "uint256"
        },
        {
          "internalType": "string",
          "name": "name",
          "type": "string"
        },
        {
          "internalType": "string",
          "name": "origin",
          "type": "string"
        },
        {
          "internalType": "string",
          "name": "currentStage",
          "type": "string"
        },
        {
          "internalType": "address",
          "name": "owner",
          "type": "address"
        }
      ],
      "stateMutability": "view",
      "type": "function",
      "constant": true
    },
    {
      "inputs": [
        {
          "internalType": "string",
          "name": "_name",
          "type": "string"
        },
        {
          "internalType": "string",
          "name": "_origin",
          "type": "string"
        }
      ],
      "name": "registerProduct",
      "outputs": [],
      "stateMutability": "nonpayable",
      "type": "function"
    },
    {
      "inputs": [
        {
          "internalType": "uint256",
          "name": "_productId",
          "type": "uint256"
        },
        {
          "internalType": "string",
          "name": "_stage",
          "type": "string"
        },
        {
          "internalType": "string",
          "name": "_location",
          "type": "string"
        },
        {
          "internalType": "string",
          "name": "_date",
          "type": "string"
        },
        {
          "internalType": "string",
          "name": "_info",
          "type": "string"
        }
      ],
      "name": "addStage",
      "outputs": [],
      "stateMutability": "nonpayable",
      "type": "function"
    },
    {
      "inputs": [
        {
          "internalType": "uint256",
          "name": "_productId",
          "type": "uint256"
        }
      ],
      "name": "getStages",
      "outputs": [
        {
          "components": [
            {
              "internalType": "string",
              "name": "stage",
              "type": "string"
            },
            {
              "internalType": "string",
              "name": "location",
              "type": "string"
            },
            {
              "internalType": "string",
              "name": "date",
              "type": "string"
            },
            {
              "internalType": "string",
              "name": "info",
              "type": "string"
            }
          ],
          "internalType": "struct FoodSupplyChain.StageDetails[]",
          "name": "",
          "type": "tuple[]"
        }
      ],
      "stateMutability": "view",
      "type": "function",
      "constant": true
    }
  ],
  "bytecode": "0x60806040526000805534801561001457600080fd5b50611650806100246000396000f3fe608060405234801561001057600080fd5b50600436106100625760003560e01c80631f16653b1461006757806352cf774c146100855780637acc0b20146100a15780638fbd0dcf146100d5578063bc765f59146100f1578063ef8cccb014610124575b600080fd5b61006f610154565b60405161007c9190610b74565b60405180910390f35b61009f600480360381019061009a9190610d15565b61015a565b005b6100bb60048036038101906100b69190610e00565b6102d0565b6040516100cc959493929190610eed565b60405180910390f35b6100ef60048036038101906100ea9190610f55565b6104be565b005b61010b60048036038101906101069190610fcd565b610634565b60405161011b949392919061100d565b60405180910390f35b61013e60048036038101906101399190610e00565b6108a1565b60405161014b91906111f2565b60405180910390f35b60005481565b60006001600087815260200190815260200160002060000154036101b3576040517f08c379a00000000000000000000000000000000000000000000000000000000081526004016101aa90611260565b60405180910390fd5b6002600086815260200190815260200160002060405180608001604052808681526020018581526020018481526020018381525090806001815401808255809150506001900390600052602060002090600402016000909190919091506000820151816000019081610225919061148c565b50602082015181600101908161023b919061148c565b506040820151816002019081610251919061148c565b506060820151816003019081610267919061148c565b5050508360016000878152602001908152602001600020600301908161028d919061148c565b507f6b19747f80859aa85dd141925fdbf507ba7defc47496a4075cece06dadde734a8585856040516102c19392919061155e565b60405180910390a15050505050565b60016020528060005260406000206000915090508060000154908060010180546102f9906112af565b80601f0160208091040260200160405190810160405280929190818152602001828054610325906112af565b80156103725780601f1061034757610100808354040283529160200191610372565b820191906000526020600020905b81548152906001019060200180831161035557829003601f168201915b505050505090806002018054610387906112af565b80601f01602080910402602001604051908101604052809291908181526020018280546103b3906112af565b80156104005780601f106103d557610100808354040283529160200191610400565b820191906000526020600020905b8154815290600101906020018083116103e357829003601f168201915b505050505090806003018054610415906112af565b80601f0160208091040260200160405190810160405280929190818152602001828054610441906112af565b801561048e5780601f106104635761010080835404028352916020019161048e565b820191906000526020600020905b81548152906001019060200180831161047157829003601f168201915b5050505050908060040160009054906101000a900473ffffffffffffffffffffffffffffffffffffffff16905085565b6000808154809291906104d0906115d2565b91905055506040518060a0016040528060005481526020018381526020018281526020016040518060400160405280600a81526020017f526567697374657265640000000000000000000000000000000000000000000081525081526020013373ffffffffffffffffffffffffffffffffffffffff16815250600160008054815260200190815260200160002060008201518160000155602082015181600101908161057c919061148c565b506040820151816002019081610592919061148c565b5060608201518160030190816105a8919061148c565b5060808201518160040160006101000a81548173ffffffffffffffffffffffffffffffffffffffff021916908373ffffffffffffffffffffffffffffffffffffffff1602179055509050507fbb788d1bdfb4363138615cb6605f118fc2eb506f6efd90abf0dcc727458e5db760005483836040516106289392919061155e565b60405180910390a15050565b6002602052816000526040600020818154811061065057600080fd5b906000526020600020906004020160009150915050806000018054610674906112af565b80601f01602080910402602001604051908101604052809291908181526020018280546106a0906112af565b80156106ed5780601f106106c2576101008083540402835291602001916106ed565b820191906000526020600020905b8154815290600101906020018083116106d057829003601f168201915b505050505090806001018054610702906112af565b80601f016020809104026020016040519081016040528092919081815260200182805461072e906112af565b801561077b5780601f106107505761010080835404028352916020019161077b565b820191906000526020600020905b81548152906001019060200180831161075e57829003601f168201915b505050505090806002018054610790906112af565b80601f01602080910402602001604051908101604052809291908181526020018280546107bc906112af565b80156108095780601f106107de57610100808354040283529160200191610809565b820191906000526020600020905b8154815290600101906020018083116107ec57829003601f168201915b50505050509080600301805461081e906112af565b80601f016020809104026020016040519081016040528092919081815260200182805461084a906112af565b80156108975780601f1061086c57610100808354040283529160200191610897565b820191906000526020600020905b81548152906001019060200180831161087a57829003601f168201915b5050505050905084565b606060026000838152602001908152602001600020805480602002602001604051908101604052809291908181526020016000905b82821015610b505783829060005260206000209060040201604051806080016040529081600082018054610909906112af565b80601f0160208091040260200160405190810160405280929190818152602001828054610935906112af565b80156109825780601f1061095757610100808354040283529160200191610982565b820191906000526020600020905b81548152906001019060200180831161096557829003601f168201915b5050505050815260200160018201805461099b906112af565b80601f01602080910402602001604051908101604052809291908181526020018280546109c7906112af565b8015610a145780601f106109e957610100808354040283529160200191610a14565b820191906000526020600020905b8154815290600101906020018083116109f757829003601f168201915b50505050508152602001600282018054610a2d906112af565b80601f0160208091040260200160405190810160405280929190818152602001828054610a59906112af565b8015610aa65780601f10610a7b57610100808354040283529160200191610aa6565b820191906000526020600020905b815481529060010190602001808311610a8957829003601f168201915b50505050508152602001600382018054610abf906112af565b80601f0160208091040260200160405190810160405280929190818152602001828054610aeb906112af565b8015610b385780601f10610b0d57610100808354040283529160200191610b38565b820191906000526020600020905b815481529060010190602001808311610b1b57829003601f168201915b505050505081525050815260200190600101906108d6565b505050509050919050565b6000819050919050565b610b6e81610b5b565b82525050565b6000602082019050610b896000830184610b65565b92915050565b6000604051905090565b600080fd5b600080fd5b610bac81610b5b565b8114610bb757600080fd5b50565b600081359050610bc981610ba3565b92915050565b600080fd5b600080fd5b6000601f19601f8301169050919050565b7f4e487b7100000000000000000000000000000000000000000000000000000000600052604160045260246000fd5b610c2282610bd9565b810181811067ffffffffffffffff82111715610c4157610c40610bea565b5b80604052505050565b6000610c54610b8f565b9050610c608282610c19565b919050565b600067ffffffffffffffff821115610c8057610c7f610bea565b5b610c8982610bd9565b9050602081019050919050565b82818337600083830152505050565b6000610cb8610cb384610c65565b610c4a565b905082815260208101848484011115610cd457610cd3610bd4565b5b610cdf848285610c96565b509392505050565b600082601f830112610cfc57610cfb610bcf565b5b8135610d0c848260208601610ca5565b91505092915050565b600080600080600060a08688031215610d3157610d30610b99565b5b6000610d3f88828901610bba565b955050602086013567ffffffffffffffff811115610d6057610d5f610b9e565b5b610d6c88828901610ce7565b945050604086013567ffffffffffffffff811115610d8d57610d8c610b9e565b5b610d9988828901610ce7565b935050606086013567ffffffffffffffff811115610dba57610db9610b9e565b5b610dc688828901610ce7565b925050608086013567ffffffffffffffff811115610de757610de6610b9e565b5b610df388828901610ce7565b9150509295509295909350565b600060208284031215610e1657610e15610b99565b5b6000610e2484828501610bba565b91505092915050565b600081519050919050565b600082825260208201905092915050565b60005b83811015610e67578082015181840152602081019050610e4c565b60008484015250505050565b6000610e7e82610e2d565b610e888185610e38565b9350610e98818560208601610e49565b610ea181610bd9565b840191505092915050565b600073ffffffffffffffffffffffffffffffffffffffff82169050919050565b6000610ed782610eac565b9050919050565b610ee781610ecc565b82525050565b600060a082019050610f026000830188610b65565b8181036020830152610f148187610e73565b90508181036040830152610f288186610e73565b90508181036060830152610f3c8185610e73565b9050610f4b6080830184610ede565b9695505050505050565b60008060408385031215610f6c57610f6b610b99565b5b600083013567ffffffffffffffff811115610f8a57610f89610b9e565b5b610f9685828601610ce7565b925050602083013567ffffffffffffffff811115610fb757610fb6610b9e565b5b610fc385828601610ce7565b9150509250929050565b60008060408385031215610fe457610fe3610b99565b5b6000610ff285828601610bba565b925050602061100385828601610bba565b9150509250929050565b600060808201905081810360008301526110278187610e73565b9050818103602083015261103b8186610e73565b9050818103604083015261104f8185610e73565b905081810360608301526110638184610e73565b905095945050505050565b600081519050919050565b600082825260208201905092915050565b6000819050602082019050919050565b600082825260208201905092915050565b60006110b682610e2d565b6110c0818561109a565b93506110d0818560208601610e49565b6110d981610bd9565b840191505092915050565b6000608083016000830151848203600086015261110182826110ab565b9150506020830151848203602086015261111b82826110ab565b9150506040830151848203604086015261113582826110ab565b9150506060830151848203606086015261114f82826110ab565b9150508091505092915050565b600061116883836110e4565b905092915050565b6000602082019050919050565b60006111888261106e565b6111928185611079565b9350836020820285016111a48561108a565b8060005b858110156111e057848403895281516111c1858261115c565b94506111cc83611170565b925060208a019950506001810190506111a8565b50829750879550505050505092915050565b6000602082019050818103600083015261120c818461117d565b905092915050565b7f50726f64756374206e6f7420666f756e64000000000000000000000000000000600082015250565b600061124a601183610e38565b915061125582611214565b602082019050919050565b600060208201905081810360008301526112798161123d565b9050919050565b7f4e487b7100000000000000000000000000000000000000000000000000000000600052602260045260246000fd5b600060028204905060018216806112c757607f821691505b6020821081036112da576112d9611280565b5b50919050565b60008190508160005260206000209050919050565b60006020601f8301049050919050565b600082821b905092915050565b6000600883026113427fffffffffffffffffffffffffffffffffffffffffffffffffffffffffffffffff82611305565b61134c8683611305565b95508019841693508086168417925050509392505050565b6000819050919050565b600061138961138461137f84610b5b565b611364565b610b5b565b9050919050565b6000819050919050565b6113a38361136e565b6113b76113af82611390565b848454611312565b825550505050565b600090565b6113cc6113bf565b6113d781848461139a565b505050565b5b818110156113fb576113f06000826113c4565b6001810190506113dd565b5050565b601f82111561144057611411816112e0565b61141a846112f5565b81016020851015611429578190505b61143d611435856112f5565b8301826113dc565b50505b505050565b600082821c905092915050565b600061146360001984600802611445565b1980831691505092915050565b600061147c8383611452565b9150826002028217905092915050565b61149582610e2d565b67ffffffffffffffff8111156114ae576114ad610bea565b5b6114b882546112af565b6114c38282856113ff565b600060209050601f8311600181146114f657600084156114e4578287015190505b6114ee8582611470565b865550611556565b601f198416611504866112e0565b60005b8281101561152c57848901518255600182019150602085019450602081019050611507565b868310156115495784890151611545601f891682611452565b8355505b6001600288020188555050505b505050505050565b60006060820190506115736000830186610b65565b81810360208301526115858185610e73565b905081810360408301526115998184610e73565b9050949350505050565b7f4e487b7100000000000000000000000000000000000000000000000000000000600052601160045260246000fd5b60006115dd82610b5b565b91507fffffffffffffffffffffffffffffffffffffffffffffffffffffffffffffffff820361160f5761160e6115a3565b5b60018201905091905056fea2646970667358221220bdb12d988ac9985763cf866f17a37f8d528403452afa51782f669b7304d34ffe64736f6c63430008130033",
  "immutableReferences": {},
  "source": "// SPDX-License-Identifier: MIT\r\npragma solidity ^0.8.19;\r\n\r\ncontract FoodSupplyChain {\r\n\r\n    struct StageDetails {\r\n        string stage;\r\n        string location;\r\n        string date;\r\n        string info;\r\n    }\r\n\r\n    struct Product {\r\n        uint256 id;\r\n        string name;\r\n        string origin;\r\n        string currentStage;\r\n        address owner;\r\n    }\r\n\r\n    uint256 public productCounter = 0;\r\n    mapping(uint256 => Product) public products;\r\n    mapping(uint256 => StageDetails[]) public productStages;\r\n\r\n    event ProductRegistered(uint256 productId, string name, string origin);\r\n    event StageAdded(uint256 productId, string stage, string location);\r\n\r\n    function registerProduct(string memory _name, string memory _origin) public {\r\n        productCounter++;\r\n        products[productCounter] = Product(\r\n            productCounter,\r\n            _name,\r\n            _origin,\r\n            \"Registered\",\r\n            msg.sender\r\n        );\r\n\r\n        emit ProductRegistered(productCounter, _name, _origin);\r\n    }\r\n\r\n    function addStage(\r\n        uint256 _productId,\r\n        string memory _stage,\r\n        string memory _location,\r\n        string memory _date,\r\n        string memory _info\r\n    ) public {\r\n        require(products[_productId].id != 0, \"Product not found\");\r\n\r\n        productStages[_productId].push(StageDetails(_stage, _location, _date, _info));\r\n        products[_productId].currentStage = _stage;\r\n\r\n        emit StageAdded(_productId, _stage, _location);\r\n    }\r\n\r\n    function getStages(uint256 _productId) public view returns (StageDetails[] memory) {\r\n        return productStages[_productId];\r\n    }\r\n}\r\n",
  "sourcePath": "C:\\Users\\Sanskruti\\Desktop\\BD_FSC\\blockchain\\contracts\\FoodSupplyChain.sol",
  "compiler": {
    "name": "solc",
    "version": "0.8.19+commit.7dd6d404.Emscripten.clang"
  },
  "schemaVersion": "3.4.16",
  "updatedAt": "2025-11-06T23:48:21.368Z",
  "networkType": "ethereum",
  "devdoc": {
    "kind": "dev",
    "methods": {},
    "version": 1
  },
  "userdoc": {
    "kind": "user",
    "methods": {},
    "version": 1
  }
}